:020000002100DD
:02000300217C5E
:02000B00213D95
:10010000758130758901C2D3C2D4780079007A0034
:100110007B007C007D007520007521007522007534
:100120002300752400752500752603758CEC758AEF
:1001300078D28CD288D2A8D2A9D2AF80FEC0E0C03B
:10014000D0C28C758CEC758A8CC28DD28CE5206007
:10015000020521ECB40003EB8013B40105EA44105E
:10016000800BB40205E944208003E84430F590ECAC
:1001700004B404027400FCD0D0D0E032C0E0C0D09F
:10018000E520700E75200175210075220075230091
:100190008074E521B40C087520017521008067404A
:1001A00065E5222521F5220523E523B52610E52264
:1001B0008523F08475247875252FF5F08009752442
:1001C0007875252F8521F0752200752300C3E5245D
:1001D00095F0F524E5259400F525400E0522E5224D
:1001E000B464EA752200052380E3E52275F00A84F1
:1001F000F9A8F0E523FA7B00752100E523B5260672
:0B020000752200752300D0D0D0E03242
:00000001FF
