:020000002100DD
:02000300218852
:02000B0021438F
:10010000758130758901C2D3C2D4780079007A0034
:100110007B007C007D007520007521007522007534
:1001200023007524007525007526037527007528A2
:1001300000758CEC758A78D28CD288D2A8D2A9D2DC
:10014000AF80FEC0E0C0D0C28C758CEC758A8CC2CA
:100150008DD28CE52060080521E52170020527EC91
:10016000B40003EB8013B40105EA4410800BB40221
:1001700005E944208003E84430F590EC04B404021F
:100180007400FCD0D0D0E032C0E0C0D0E5207015C3
:1001900075200175210075220075230075270075F3
:1001A000280002031EE521B40C02400FE52770175A
:1001B000E521B40C044004800E500C75200175211B
:1001C0000075270002031EE5222521F522E52825DA
:1001D00027F5280523E523B52615E5287063E522D4
:1001E0008523F08475247875252FF5F00202D9E572
:1001F00027706075247875252F8521F00202D9E5D6
:100200002875F0FFA4F52485F025E52475F005A4F4
:10021000F524AFF0E52575F005A42FF525AFF0E541
:100220002275F005A42524F524E5F03525F525747F
:10023000003FFFEF602D7B007A0079007808020311
:080240000AE528B414B940B727
:100248007B007A007901780002030AB41455405300
:100258007B007A007901780002030AE5256031B451
:10026800040D400D7B007A007901780502030A50DD
:1002780014741E8525F08475F00A84F9A8F07A00B4
:100288007B0002030A7B007A007901780202030AE4
:1002980074FA8524F08475F00A84F9A8F07A007B52
:1002A80000805FB4040C400C7B007A00790178056B
:1002B80080505013741E8527F08475F00A84F9A8BD
:1002C800F07A007B00803B7B007A0079017802801D
:1002D80031752200752300C3E52495F0F524E52542
:1002E8009400F525400E0522E522B464EA75220043
:1002F800052380E3E52275F00A84F9A8F0E523FADE
:100308007B00752100752700E523B52609752200B5
:0B031800752300752800D0D0D0E03223
:00000001FF
