:020000002100DD
:02000300218852
:02000B00213D95
:10010000758130758901780079007A007B007C0068
:10011000752000752100752200752301752400D219
:10012000B2D288D2A8C289758CEC758A78D2A9D24D
:10013000AFD28C780079007A007B0080FEC0E0C0EE
:10014000D0C28C758CEC758A78D28CE523700E0544
:1001500020E52070020521E52170020522ECB400A3
:1001600005E844308013B40105E94420800BB40253
:1001700005EA44108003EB4400F590EC04B404025B
:100180007400FCD0D0D0E032C0E0C0D0C0F0C0835A
:10019000C082C28B75F032D5F0FDE523600E752369
:1001A00000752000752100752200415AE520452187
:1001B0004522700B7B097A0979097809020246E524
:1001C000227010E521B42E0040167012E520B4E034
:1001D00000400D7B007A007906780002024650F359
:1001E0008520828521838522F07530E075312E755A
:1001F00032007533007534007F10C3E53333F533B7
:10020000E53433F534C3E53033F530E53133F531DA
:10021000E53233F532C3E5309582F535E531958326
:10022000F536E53295F0400A853530853631F532C0
:0B0230000533DFC6E53475F00A84FBDF
:10023B00AAF0E53375F00A84F9A8F0752000752152
:10024B0000752200752301D28AD2AAC28BD2AF7558
:10025B00F0C8D5F0FDD082D083D0F0D0D0D0E03232
:00000001FF
