:020000002100DD
:02001300218446
:02000B00213999
:10010000758130758901780079007A007B007C0068
:10011000752000752100752200752301752400D219
:100120008AD2AA758CEC758A78D2A9D2AFD28C7893
:100130000079007A007B0080FEC0E0C0D0C28C75E0
:100140008CEC758A78D28CE523700E0520E5207042
:10015000020521E52170020522ECB40005E84430D7
:100160008013B40105E94420800BB40205EA441071
:100170008003EB4400F590EC04B404027400FCD05E
:10018000D0D0E032C0E0C0D0C0F0C083C082E52350
:10019000600F752300752000752100752200020292
:1001A00044E52045214522700B7B097A09790978BD
:1001B0000902023BE5227010E521B42E00401670C2
:1001C00012E520B4E000400D7B007A00790678004B
:1001D00002023B50F38520828521838522F0753011
:1001E000E075312E7532007533007534007F10C311
:1001F000E53333F533E53433F534C3E53033F530E7
:10020000E53133F531E53233F532C3E5309582F52A
:1002100035E5319583F536E53295F0400A85353080
:10022000853631F5320533DFC6E53475F00A84FBD7
:09023000AAF0E53375F00A84F927
:10023900A8F0752000752100752200D082D083D0E6
:06024900F0D0D0D0E0323D
:00000001FF
