:020000002100DD
:02001300218F3B
:02000B00214191
:10010000758130758901780079007A007B007C0068
:10011000C0D075D018780079007A007B017C00D0BF
:10012000D0D2B3D28AD2AAC28BD2BA758CEC758ADD
:1001300078D2A9D2AFD28C780079007A007B008087
:10014000FEC0E0C0D0C28C758CEC758A78D28CC0B1
:10015000D075D018EB700B08E8700109E970010A3E
:10016000D0D0D0D0ECB40005E844308013B4010501
:10017000E94420800BB40205EA44108003EB4400FC
:10018000F590EC04B404027400FCD0D0D0E032C08E
:10019000E0C0D0C0F0C083C082C28B75F032D5F011
:1001A000FDE5D05418F560E5D054E74418F5D0EBE0
:1001B000700280157B00780079007A00E5D054E762
:1001C000FFE5604FF5D00202A5E8494AE8F561E98C
:1001D000F562EAF563E5D054E7FFE5604FF5D0E559
:1001E0006145624563700B7B097A097909780902D8
:1001F000027DE561F582E562F583E563F5F0E5F002
:100200007010E583B42E0040157011E582B4E00053
:10021000400C7B007A0079067800806150F47530DC
:04022000E075312E26
:100224007532007533007534007F10C3E53333F540
:1002340033E53433F534C3E53033F530E53133F5A4
:1002440031E53233F532C3E5309582F535E5319544
:1002540083F536E53295F0400CE535F530E536F5B5
:1002640031F5320533DFC4E53475F00A84FBAAF0B6
:10027400E53375F00A84F9A8F0E5D05418F560E583
:10028400D054E74418F5D0780079007A007B01E572
:10029400D054E7FFE5604FF5D0D28AD2AAC28BD200
:1002A400AF75F0C8D5F0FDD082D083D0F0D0D0D0D7
:0202B400E03236
:00000001FF
