:020000002100DD
:02001300217B4F
:02000B00218C46
:10010000758130758901780079007A007B007C0068
:100110007D007E00752100753000753100D28AD2D5
:10012000AAD2A9D2AFD28C31720521E521B46419CB
:10013000752100E53004B43C0C7400E53104B43C96
:10014000027400F531F53080DEEEB401DA0DEDB465
:100150000AD57D0008E8B40ACE780009E9B40AC7D8
:1001600079000AEAB40AC07A000BEBB406B97B0046
:1001700080B57FC71F0000BF00FA22C0E0C0D0EEEC
:1001800004B403027400FED0D0D0E032C0E0C0D08E
:10019000758CEC758A8CEE7034ECB40008E5317522
:1001A000F00A848042B4010CE53175F00A84E5F070
:1001B00044108033B4020AE53075F00A844420808C
:1001C00026E53075F00A84E5F04430801AECB4007E
:1001D00003EB8013B40105EA4410800BB40205E977
:1001E00044208003E84430F590EC04B40402740029
:0601F000FCD0D0D0E0328B
:00000001FF
