:020000002100DD
:0200130021EDDD
:02000B0021379B
:02001B0021BD05
:10010000758130758911780079007A007B007C0058
:100110007D00752000753000753100D28AD2AA7535
:100120008C3C758AB0D2A9D28C758DDC758B00D2CF
:10013000ABD28ED2AF80FEC0E0C0D0758C3C758A49
:10014000B0EC04B404027400FC0DEDB414167D0090
:10015000E53004B43C0C7400E53104B43C02740096
:10016000F531F530E5207034ECB40008E53175F078
:100170000A848042B4010CE53175F00A84E5F0444C
:10018000108033B4020AE53075F00A8444208026DA
:10019000E53075F00A84E5F04430801AECB40003D1
:1001A000EB8013B40105EA4410800BB40205E94466
:1001B000208003E84430F590D0D0D0E032C0E0C0D9
:1001C000D0758DDC758B00E520B4011C08E8B40AFD
:1001D00017780009E9B40A1079000AEAB40A097A22
:1001E000000BEBB406027B00D0D0D0E032C0E0C000
:1001F000D0E52004B403027400F520D0D0D0E03262
:00000001FF
