:020000002100DD
:0200130021F2D8
:02000B0021389A
:02001B0021C6FC
:10010000758130758911758CEC758A78758DD87507
:100110008BF0753000753100753200780079007A07
:10012000007B007C00752000D28AD2AAD2A9D2AB73
:10013000D2AFD28CD28E80FEC0E0C0D0758CEC7570
:100140008A78E53004F530B4C81A753000E531041A
:10015000B43C027400F531B4000AE53204B43C0248
:100160007400F532E520B40034ECB40008E53275D3
:10017000F00A848042B4010CE53275F00A84E5F09F
:1001800044108033B4020AE53175F00A84442080BB
:1001900026E53175F00A84E5F04430801AECB400AD
:1001A00003EB8013B40105EA4410800BB40205E9A7
:1001B00044208003E84430F590EC04B40402740059
:1001C000FCD0D0D0E032C0E0C0D0758DD8758BF0B7
:1001D000E520B4011808B80A14780009B90A0E79A4
:1001E000000ABA0A087A000BBB06027B00D0D0D006
:1001F000E032C0E0C0D0E52004B403027400F52072
:05020000D0D0D0E03277
:00000001FF
