:020000002100DD
:02001300217D4D
:02000B00219042
:10010000758130758901780079007A007B007C0068
:100110007D00752000753000753100753200D28A7F
:10012000D2AAD2A9D2AFD28C31740530E530B4E86E
:1001300019753000E53104B43C0C7400E53204B4A8
:100140003C027400F532F53180DEE520B401D90DB2
:10015000EDB40AD47D0008E8B40ACD780009E9B40A
:100160000AC679000AEAB40ABF7A000BEBB406B8F3
:100170007B0080B47FC71F0000BF00FA22C0E0C030
:10018000D0E52004B403027400F520D0D0D0E032D2
:10019000C0E0C0D0758CEC758ABDE5207034ECB43D
:1001A0000008E53275F00A848042B4010CE532752E
:1001B000F00A84E5F044108033B4020AE53175F0AA
:1001C0000A8444208026E53175F00A84E5F0443045
:1001D000801AECB40003EB8013B40105EA441080EC
:1001E0000BB40205E944208003E84430F590EC04A8
:0B01F000B404027400FCD0D0D0E03258
:00000001FF
