:020000002100DD
:02000300219941
:02000B002131A1
:10010000758130758901C2D3C2D4780079007A0034
:100110007B007C007D007520007521007522007534
:100120008CEC758A78D28CD288D2A8D2A9D2AF8032
:10013000FEC0E0C0D0C28C758CEC758A8CC28DD2AA
:100140008C0DEDB4C82A7D000522E522B43C037570
:100150002200E52075F03C84FAA9F0E975F00A84E4
:10016000F8A9F07B00B40A087A09790978097B09B3
:10017000ECB40003EB8013B40105EA4410800BB427
:100180000205E944208003E84430F590EC04B4040F
:10019000027400FCD0D0D0E032C0E0C0D00520E531
:0A01A0002070020521D0D0D0E0321B
:00000001FF
