:020000002100DD
:02000300218C4E
:02000B00212FA3
:10010000758130758901C2D3C2D4780079007A0034
:100110007B007C00752000752100752200758CEC39
:10012000758A78D28CD288D2A8D2A9D2AF80FEC0EC
:10013000E0C0D0C28C758CEC758A8CC28DD28CE5F7
:100140002060080522E52270020521E52175F00AEC
:1001500084FBE52275F00A84FAA9F0E975F00A84B7
:10016000F8A9F0ECB40003EB8013B40105EA4410E5
:10017000800BB40205E944208003E84430F590EC9C
:1001800004B404027400FCD0D0D0E032C0E0C0D08F
:10019000E520700B75200175210075220080037524
:0701A0002000D0D0D0E032B6
:00000001FF
