:020000000125D8
:02000B0001856D
:1000230001A2758921758DFD758BFDD28E7598D0D2
:10003300D2ACD2AF758CED758AFFD2A9D28C757014
:10004300007571107572207573307870C2753075D4
:10005300FDC275757009757119757229757339113A
:10006300C079307F40E775F00A84F57143712085CC
:10007300F07043703075721075730011C009DFE5BD
:1000830080CCC0E0C0D0C28C758CEC758A7CC28DEC
:10009300D28C869008B874027870D0D0D0E0323019
:1000A300981AC298309A0DE599B40510C29D79301B
:1000B3007F408008E599F709DF02D275327DC87E5B
:0600C300FADEFEDDFA2268
:00000001FF
