:020000002100DD
:02000B0021AC26
:02002300214575
:1001000075816075200075210075230075290075C3
:10011000283075240E75250E75260E75270E31288C
:10012000312C313D314180FE7590FF22758921755A
:100130008DFAD28E758CDC758A00D28C227598D09F
:100140002275A89222C0E0C0D0C082C083C0F0F562
:100150002A85D02B85F02C20980530993CC299E552
:100160009820E521E599A822F6088822D52128754E
:100170002002D29D75240D75250075260E75270E5B
:100180007529C88012E599B4050DC29D75200175C9
:1001900021407522308000C298E52A852BD0852C1D
:1001A000F0D0F0D083D082D0D0D0E032C0E0C0D048
:1001B000C0F0F52A85D02B85F02CC28C758CDC75AF
:1001C0008A00D28CE520B40202801EB4030AD5292D
:1001D000187529C851228011B4040E752410752594
:1001E0000E75260E75270D8000E523B40006E52464
:1001F00044008016B40106E5254410800DB40206C3
:10020000E52644208004E5274430F590E523045496
:1002100003F523E52A852BD0852CF0D0F0D0D0D063
:10022000E032C0E0C0F0C082C083A828E8B4700506
:100230007520048016E60528752410752510F5F044
:10024000C4540FF526E5F0540FF527D083D082D0A3
:04025000F0D0E022E8
:00000001FF
