:020000000130CD
:02001300018B5F
:02000B0001B73B
:10003000758130758901758CEC758A787800790046
:100040007A007B007C007D007E01752000D28AD280
:10005000AAD2A9D2AFD28CE52070FCED04B4141260
:100060007400E82411F8E92411F9EA2411FAEB24C8
:1000700011FBFD80E2EEF5F02365F02433FE22C093
:10008000F075F00984E5F004D0F022C0E0C0D0752E
:100090002001117575F00A84A8F0117575F00A84B5
:1000A000A9F0117575F00A84AAF0117575F00A842B
:1000B000ABF0D0D0D0E032C0E0C0D0758CEC758A07
:1000C00078ECB40003EB8013B40105EA4410800B14
:1000D000B40205E944208003E84430F590EC04B410
:0A00E00004027400FCD0D0D0E0321E
:00000001FF
