:020000000130CD
:02001300018A60
:02000B0001B83A
:10003000758130758901758CEC758A78D28C780160
:1000400079027A037B047C007D007E557F20E58A5F
:100050006E33258C64A5132E645AFEE58C6E33F541
:1000600021DFEB7F00752000D28AD2AAD2A9D2AFBD
:1000700080FEEEF5F033500264B26521258A6F25CB
:10008000F0FEE521336EF5210F22C0E0C0D07520CF
:1000900001117275F00984E5F004F8117275F00A27
:1000A00084A9F0117275F00A84AAF0117275F00A31
:1000B00084ABF0D0D0D0E032C0E0C0D0758CEC750D
:1000C0008A78E52070250DEDB403207D00E8045406
:1000D0000F70027401F8E92403540FF9EA24025462
:1000E0000FFAEB04540F70027401FBECB40005E846
:1000F00044008013B40105E94410800BB40205EA02
:1001000044208003EB4430543FF590EC04B40401E8
:07011000E4FCD0D0D0E03286
:00000001FF
