:020000000130CD
:0200130001A644
:02000B0001D41E
:10003000758130758901758CEC758A78D28C780061
:1000400079007A007B007C007D007E557F20E58A68
:100050006E33258C64A5132E645AFEE58C6E33F541
:1000600021DFEB7F00752000D28AD2AAD2A9D2AFBD
:10007000E52070FCED04B414127400E82411F8E9D2
:100080002411F9EA2411FAEB2411FBFD80E2EEF5CC
:10009000F033500264B26521258A6F25F0FEE52118
:1000A000336EF5210F22C0E0C0D0752001118E758E
:1000B000F00984E5F004F8118E75F00A84A9F011B6
:1000C0008E75F00A84AAF0118E75F00A84ABF0D018
:1000D000D0D0E032C0E0C0D0758CEC758A78ECB43A
:1000E0000005E8D2948013B40105E9D295800BB4E1
:1000F0000205EAD2968003EBD297540FF590EC04F8
:0A010000B40401E4FCD0D0D0E032DA
:00000001FF
