:020000002100DD
:0200230021407A
:02000B00212EA4
:10010000758130758921C2D3C2D4780079007A0014
:100110007B007C007D00758CEC758A78D2A975987F
:1001200050758DFDD28ED2ACD2AFD28C80FEC0E0A5
:10013000C0D0C28C758CEC758A78C28DD28C802030
:10014000C0E0C0D0309814C298E59975F06484FA84
:10015000E5F075F00A84F9A8F07B00D0D0D0E03249
:10016000ECB40005E844008013B40105E9441080B4
:100170000BB40205EA44208003EB4430543FF59071
:0C018000EC04B40401E4FCD0D0D0E03268
:00000001FF
