:020000002100DD
:02000B002121B1
:10010000758135758911758CEC758A78D28CD2AF72
:10011000D2A975300075310075320075330000804A
:10012000FDC0E0C0D0758CEC758A78E530B400066F
:10013000E530540F801CB40108E531540F441080A1
:1001400011B40208E532540F44208006E533540F01
:100150004440F590E53004B404027400F530E53015
:10016000B409197530000531E531B4050F7531005A
:100170000532E532B409057532000533D0D0D0E040
:01018000324C
:00000001FF
